22:44:12.429674 IP localhost.46658 > localhost.http-alt: Flags [P.], seq 3878451589:3878451780, ack 1328520997, win 342, options [nop,nop,TS val 5525256 ecr 5525256], length 191
	0x0000:  4500 00f3 368e 4000 4006 0575 7f00 0001  E...6.@.@..u....
	0x0010:  7f00 0001 b642 1f90 e72c 7985 4f2f 9f25  .....B...,y.O/.%
	0x0020:  8018 0156 fee7 0000 0101 080a 0054 4f08  ...V.........TO.
	0x0030:  0054 4f08 4745 5420 2f62 6f6f 6b73 746f  .TO.GET./booksto
	0x0040:  7265 2f53 686f 7070 696e 6743 6172 742e  re/ShoppingCart.
	0x0050:  6a73 7020 4854 5450 2f31 2e31 0d0a 5573  jsp.HTTP/1.1..Us
	0x0060:  6572 2d41 6765 6e74 3a20 5767 6574 2f31  er-Agent:.Wget/1
	0x0070:  2e31 3520 286c 696e 7578 2d67 6e75 290d  .15.(linux-gnu).
	0x0080:  0a41 6363 6570 743a 202a 2f2a 0d0a 486f  .Accept:.*/*..Ho
	0x0090:  7374 3a20 3132 372e 302e 302e 313a 3830  st:.127.0.0.1:80
	0x00a0:  3830 0d0a 436f 6e6e 6563 7469 6f6e 3a20  80..Connection:.
	0x00b0:  4b65 6570 2d41 6c69 7665 0d0a 436f 6f6b  Keep-Alive..Cook
	0x00c0:  6965 3a20 4a53 4553 5349 4f4e 4944 3d36  ie:.JSESSIONID=6
	0x00d0:  4138 3145 3830 3833 4636 4439 3935 3744  A81E8083F6D9957D
	0x00e0:  3545 3645 4535 4137 4142 3235 3137 360d  5E6EE5A7AB25176.
	0x00f0:  0a0d 0a                                  ...
